:020000040000FA
:1000000000000000000000000000000000000000F0
:1000100000000000000000000000000000000000E0
:1000200000000000000000000000000000000000D0
:1000300000000000000000000000000000000000C0
:10004000000000000000000E946E300E826E000072
:100050005B0E826E00004F0E826E0000660E826E96
:1000600000006D0E826E00007C0E826E0000070E96
:10007000826E00007F0E826E0000670E826E0000AE
:0200800003007B
:020000040030CA
:0E00000000021E00008380000FC00FE00F40C2
:00000001FF
